:100000000C9434000C9451000C9451000C94510049
:100010000C9451000C9451000C9451000C9451001C
:100020000C9451000C9451000C9451000C946B00F2
:100030000C9451000C9451000C9451000C945100FC
:100040000C9451000C9451000C9451000C945100EC
:100050000C9451000C9451000C9451000C945100DC
:100060000C9451000C94510011241FBECFEFD8E026
:10007000DEBFCDBF11E0A0E0B1E0E2EEF2E002C0F1
:1000800005900D92A230B107D9F721E0A2E0B1E0CE
:1000900001C01D92A430B207E1F70E9488000C94C1
:1000A0006F010C94000018BC17BC28985F982C981E
:1000B0005C980895806480937C0080917A008064CD
:1000C00080937A0080917A0086FDFCCF8091780041
:1000D0009091790008951F920F920FB60F921124FC
:1000E0008F939F9380910301882369F0809102018F
:1000F0008F5F8093020144989F918F910F900FBE64
:100100000F901F90189588B190E1892788B9F4CF96
:100110008AB18B608AB98BB18B608BB93C9A449859
:1001200080E480937C0087E880937A008AB1806FB6
:100130008AB984B1816184B983EA84BD81E085BDD7
:100140008091810088608093810088E09DE3909396
:100150008900809388008091810085608093810070
:1001600080916F00826080936F00789410E0EE249D
:10017000E394C0E0D2E00FEFABE0FA2E80910301F0
:1001800081110BC080910001811107C0E092030131
:100190001092020144980E94530083E00E945A008A
:1001A00020910301211124C08935924000F11111E1
:1001B0001FC08091000180FF08C058988091000105
:1001C0008E7F8093000111E013C08091000181FFB8
:1001D00005C05998809100018D7FF3CF8091000177
:1001E00083FFF1CF5B9880910001877FEACF10E019
:1001F00081E00E945A006C0180E00E945A00209128
:100200000301211169C0AC015250813032E09307E3
:100210001CF4AE01481B590B049F9001059F300D43
:100220001124232F2595622F70E0E2E0DE1AC69E8E
:100230009001C79E300DD69E300D1124A90137FFC5
:1002400002C041505E4F452F550F550B4595FB01A0
:10025000E41BF50BAF0137FF02C021503E4F232FA7
:10026000330F330B2595260F371F57FD2CC04F3FFB
:10027000510519F014F04FEF50E037FD26C02F3F25
:10028000310519F014F02FEF30E081159240FCF0A9
:10029000289A5F982C9A5C9848BD27BD80910301ED
:1002A000882309F46BCF80910201853008F466CF72
:1002B0008BB18B608BB9F092000110920301109208
:1002C000020144985BCF40E0D8CF20E0DECF2898F1
:1002D0005F9A2C985C9AE0CF0E945300DFCFF8948D
:0202E000FFCF4E
:0202E2000B000F
:00000001FF
