:100000000C9463000C948B000C948B000C948B006C
:100010000C948B000C948B000C948B000C948B0034
:100020000C948B000C948B000C948B000C94850228
:100030000C948B000C948B000C948B000C948B0014
:100040000C943B020C948B000C948B000C948B0052
:100050000C948B000C948B000C948B000C948B00F4
:100060000C948B000C948B0000000008000201002F
:100070000003040700000000000000000A0B0C0D44
:100080000E0F0001020304050000000025002800F7
:100090002B0000000000240027002A0004040404B0
:1000A0000404040402020202020203030303030322
:1000B00001020408102040800102040810200102FF
:1000C00004081020410511241FBECFEFD8E0DEBF89
:1000D000CDBF21E0A8E0B1E001C01D92AE33B20770
:1000E000E1F711E0A0E0B1E0EAEDFAE002C005902E
:1000F0000D92A830B107D9F710E0C3E6D0E004C0F4
:100100002197FE010E946505C236D107C9F70E94FA
:10011000A6020C946B050C94000090E0FC01E055E5
:10012000FF4F249184569F4FFC018491882399F0BE
:1001300090E0880F991FFC01EE56FF4FA591B491F6
:10014000FC01E857FF4F859194918FB7F894EC919B
:10015000E22BEC938FBF089590E0FC01E859FF4F2C
:100160002491FC01E055FF4F3491FC01E456FF4F10
:10017000E491EE23C9F0222339F0233001F1A8F4F1
:10018000213019F1223029F1F0E0EE0FFF1FE8577E
:10019000FF4FA591B4918FB7F894EC91611126C0EF
:1001A00030953E233C938FBF08952730A9F0283027
:1001B000C9F0243049F7809180008F7D03C0809181
:1001C00080008F7780938000DFCF84B58F7784BDE8
:1001D000DBCF84B58F7DFBCF8091B0008F7780938C
:1001E000B000D2CF8091B0008F7DF9CF3E2BDACF17
:1001F000682F80911E010E94AC0080913A0190917D
:100200003B018230910538F0880F991F880F991FA4
:1002100005970197F1F7089581E00C94F8003FB736
:10022000F89480910E0190910F01A0911001B0916E
:10023000110126B5A89B05C02F3F19F00196A11DFD
:10024000B11D3FBFBA2FA92F982F8827BC01CD0120
:10025000620F711D811D911D42E0660F771F881F7F
:10026000991F4A95D1F708958F929F92AF92BF92AE
:10027000CF92DF92EF92FF924B015C010E940F013F
:100280006B017C010E940F016C197D098E099F0989
:10029000683E734081059105A8F321E0821A910818
:1002A000A108B10888EEC80E83E0D81EE11CF11C3D
:1002B00081149104A104B10429F7FF90EF90DF901D
:1002C000CF90BF90AF909F908F9008958EBD00000B
:1002D0000DB407FEFDCF8EB5089518BC17BC289845
:1002E0005F982C985C9808950F931F9300911F01BD
:1002F00010912001209121013091220140E052E132
:100300006AE770E080E0041715072607370740F416
:1003100076956795579547958F5F8630A1F787E06B
:10032000982F906A9695809581709CBD8DBD80E0D8
:100330001F910F910C94F800CF93C82F0E94740165
:100340008C2F0E946601809323018FEF0E9466012B
:10035000C82F0E940C018C2FCF910895CF93DF936B
:10036000D82FC62F0E9474018D2F80620E946601D3
:10037000809323018C2F0E946601DF91CF910C9412
:100380000C0160912F0161FD0AC0626060932F0132
:1003900080E00E94AE018BE19EE40197F1F70895A1
:1003A000CF93DF93EC0186E00E949C01877D22972A
:1003B000E1F045E550E060E070E040933601509395
:1003C00037016093380170933901C0E0C82B6C2F5E
:1003D00086E00E94AE0186E00E949C0191E0C81375
:1003E00090E0892FDF91CF9108954BE950E060E0D4
:1003F00070E0409336015093370160933801709359
:100400003901C0E2E3CFFF920F931F93CF93DF93A5
:10041000C82FF62E072F142F0E9474018C2F806294
:100420000E94660180932301CF2DD02F115020F020
:1004300089910E946601FACFDF91CF911F910F91B0
:10044000FF900C940C01CF93C82F0E9474018C2F45
:100450000E94660180932301CF910C940C010E94AD
:10046000740180E50E9466018093230183E70E9466
:1004700066010C940C011F920F920FB60F9211247B
:100480002F933F938F939F93AF93BF9380910A01D4
:1004900090910B01A0910C01B0910D0130910901D7
:1004A00023E0230F2D3758F50196A11DB11D209390
:1004B000090180930A0190930B01A0930C01B09362
:1004C0000D0180910E0190910F01A0911001B0914A
:1004D00011010196A11DB11D80930E0190930F0192
:1004E000A0931001B0931101BF91AF919F918F9193
:1004F0003F912F910F900FBE0F901F90189526E8F7
:10050000230F0296A11DB11DD2CF1F920F920FB6DD
:100510000F9211248F939F9380911A01882389F061
:10052000809118019091190101969093190180937F
:10053000180144989F918F910F900FBE0F901F90BC
:10054000189588B190E1892788B9F4CF789484B55B
:10055000826084BD84B5816084BD85B5826085BDBF
:1005600085B5816085BD80916E00816080936E004D
:10057000109281008091810082608093810080913F
:1005800081008160809381008091800081608093F0
:1005900080008091B10084608093B1008091B000B0
:1005A00081608093B00080917A00846080937A00AB
:1005B00080917A00826080937A0080917A008160D5
:1005C00080937A0080917A00806880937A001092FC
:1005D000C1008AB18B608AB98BB18B608BB93C9AB0
:1005E00044988AB1806F8AB984B1816184B92398B3
:1005F0002B9A83EA84BD81E085BD10928000109221
:1006000081008091810088608093810088E09DE373
:100610009093890080938800809181008560809309
:10062000810080916F00826080936F007894CFB7D3
:10063000F89480911201811124C0E6EAF0E08491DF
:10064000EAEBF0E09491E82FF0E0EE0FFF1FEE569A
:10065000FF4FA591B491EC91E92321F461E08AE088
:100660000E94AC008AE00E948D008CB580618CBD38
:100670008CB580648CBD8DE00E948D008BE00E9463
:100680008D00809112018F5F80931201CFBF809106
:100690001D018F3F09F47AC090911E019F3F09F41C
:1006A00075C0891731F00E948D0080911E010E9453
:1006B0008D0080911D0190911E01891719F060E055
:1006C0000E94AC0081E00E94F80065E070E080E0EC
:1006D00090E00E9434016FE584E00E94AE0190E05A
:1006E00080E00E94D0018DE10E949C01C82F0E94F1
:1006F0002F028DE10E949C0191E0C81390E090933D
:100700003001882341F0C81302C00E942F0260E02C
:100710008DE10E94AE011092320160E08CE10E94F6
:10072000AE01109234016FE381E00E94AE0163E0FC
:1007300082E00E94AE0180E280932401C1E16091D9
:1007400024018C2F0E94AE01CF5FC731C1F763E057
:1007500083E00E94AE0185E0809333016CE40E9447
:10076000AE0160E787E00E94AE0182EE0E942302A4
:1007700081EE0E9423026CE080E00E94AE0180E0E6
:100780000E949C0180932F010E94C10186E00E947B
:100790009C01887F682F656086E00E94AE0182E040
:1007A00090E00E94D001EDE7F0E0849140913301A8
:1007B00061E071E00E94030282E00E949C01E3E894
:1007C000F0E0E49161E070E001C0660FEA95EAF7BD
:1007D000682B82E00E94AE010E94C10160912F014E
:1007E000616060932F0180E00E94AE0160E787E0C6
:1007F0000E94AE0180911D0190911E01891719F090
:1008000061E00E94AC0080913101882309F447C067
:100810004091330165E271E08AE00E94030223E423
:10082000D22E00E012E0FF24FA94C0E0D0E0EE24E3
:10083000E3943BE0C32E80911A01882381F08091DC
:100840000001882361F080911801909119010597AA
:1008500030F010921A011092190110921801809133
:100860000001811131C00E946D0144981B9912C092
:1008700068EC70E080E090E00E9434018BB18B6006
:100880008BB9C092000110921A01109219011092B6
:1008900018014498209779F20E940000CCCF82E0A2
:1008A0000E949C01E2E8F0E0E49121E030E001C028
:1008B000220FEA95EAF72095622F682382E00E94D2
:1008C000AE0110923101ABCF80911A01882319F04B
:1008D0000E946D01DFCF87E10E949C0180FD34C042
:1008E00080913401912CB4E08B2E811109C080914C
:1008F0002401882E853010F094E0892E982E9818C7
:100900000E94740181E60E94660180932301A4E1A4
:10091000AA2EA1E0BA2E8A942FEF821639F08FEF1B
:100920000E946601F50181935F01F5CF9A94FFEF74
:100930009F1621F08FEF0E946601F8CF0E940C01F4
:1009400060E487E00E94AE01D0927C0080917A0042
:10095000806480937A0080917A0086FDFCCF90912C
:10096000780080917900892798278927853F9140D1
:1009700008F47BC080911301811112C0E0921A012A
:1009800010921901109218018091000180FF5BC044
:100990005898809100018E7F80930001E0921301AE
:1009A00040911401509115012091160130911701C9
:1009B000B9017250213082E038071CF4B801621B83
:1009C000730BF69EC001F79E900D1124892F85951B
:1009D000682F70E05250469FC001479F900D569F70
:1009E000900D1124AC0197FF02C041505E4F452F7E
:1009F000550F550B4595FB01E41BF50BAF0197FF18
:100A000002C081509E4F892F990F990B8595860FB3
:100A1000971F57FD2DC04F3F510519F014F04FEFB0
:100A200050E097FD27C08F3F910519F014F08FEF2C
:100A300090E02115324000F1289A5F982C9A5C983A
:100A400048BD87BD27CF8091000181FF05C059981F
:100A5000809100018D7FA0CF8091000183FF9ECF08
:100A60005B9880910001877F97CF1092130198CFF8
:100A700040E0D7CF80E0DDCF28985F9A2C985C9A31
:100A8000DFCFEBE1F1E089E082838AE0838380E8D5
:100A900096E9A8E9B0E084839583A683B78380E2D2
:100AA0008187158A168A85E0808F81E0818F128E7A
:100AB00085E090E0A0E0B0E0878F90A3A1A3B2A36F
:100AC00088E091E0918380830895EE0FFF1F0590E9
:0A0AD000F491E02D0994F894FFCF93
:080ADA000B63616E616C3100D9
:00000001FF
