:100000000C9460000C9488000C9488000C94880078
:100010000C9488000C9488000C9488000C94880040
:100020000C9488000C9488000C9488000C94880030
:100030000C9488000C9488000C9488000C94880020
:100040000C9417020C9488000C9488000C9488007F
:100050000C9488000C9488000C9488000C94880000
:100060000C9488000C948800000000080002010035
:10007000000304070000000000000000000102036C
:10008000040500000000250028002B0000000000EF
:10009000240027002A0004040404040404040202C7
:1000A00002020202030303030303010204081020F7
:1000B00040800102040810200102040810204A04B4
:1000C00011241FBECFEFD8E0DEBFCDBF21E0A8E0F6
:1000D000B1E001C01D92AA33B207E1F711E0A0E040
:1000E000B1E0EEEFF8E002C005900D92A830B10744
:1000F000D9F710E0C0E6D0E004C02197FE010E94CD
:100100006E04CF35D107C9F70E9461020C947D04BB
:100110000C94000090E0FC01E655FF4F24918A56B4
:100120009F4FFC018491882399F090E0880F991FDC
:10013000FC01E457FF4FA591B491FC01EE57FF4F2E
:10014000859194918FB7F894EC91E22BEC938FBF4B
:10015000089590E0FC01E859FF4F2491FC01E65519
:10016000FF4F3491FC01EA56FF4FE491EE23C9F0B2
:10017000222339F0233001F1A8F4213019F1223083
:1001800029F1F0E0EE0FFF1FEE57FF4FA591B4915C
:100190008FB7F894EC91611126C030953E233C93C3
:1001A0008FBF08952730A9F02830C9F0243049F7CF
:1001B000809180008F7D03C0809180008F77809335
:1001C0008000DFCF84B58F7784BDDBCF84B58F7D92
:1001D000FBCF8091B0008F778093B000D2CF809119
:1001E000B0008F7DF9CF3E2BDACF682F80911A01B6
:1001F0000E94A900809136019091370182309105CB
:1002000038F0880F991F880F991F05970197F1F70C
:10021000089581E00C94F500682F80911901909168
:100220001A0189130C94A90008952091000190E40B
:10023000299F900111248E50822B80937C00809105
:100240007A00806480937A0080917A0086FDFCCFEA
:10025000809178009091790008953FB7F89480914B
:100260000A0190910B01A0910C01B0910D0126B5EE
:10027000A89B05C02F3F19F00196A11DB11D3FBFDE
:10028000BA2FA92F982F8827BC01CD01620F711DAD
:10029000811D911D42E0660F771F881F991F4A95A7
:1002A000D1F708958EBD00000DB407FEFDCF8EB5C9
:1002B00008950F931F9300911B0110911C01209131
:1002C0001D0130911E0140E052E16AE770E080E0DC
:1002D000041715072607370740F476956795579555
:1002E00047958F5F8630A1F787E0982F906A9695A3
:1002F000809581709CBD8DBD80E01F910F910C9405
:10030000F500CF93DF93D82FC62F0E9459018D2F70
:1003100080620E94520180931F018C2F0E94520123
:10032000DF91CF910C940901CF93C82F0E945901FE
:100330008C2F0E94520180931F018FEF0E94520167
:10034000C82F0E9409018C2FCF910895CF93DF937E
:10035000EC0186E00E949401877D2297E1F045E55B
:1003600050E060E070E040933201509333016093BD
:10037000340170933501C0E0C82B6C2F86E00E94D9
:10038000810186E00E94940191E0C81390E0892FDA
:10039000DF91CF9108954BE950E060E070E0409329
:1003A0003201509333016093340170933501C0E200
:1003B000E3CFFF920F931F93CF93DF93C82FF62EB7
:1003C000072F142F0E9459018C2F80620E94520126
:1003D00080931F01CF2DD02F115020F089910E94C2
:1003E0005201FACFDF91CF911F910F91FF900C94A2
:1003F0000901CF93C82F0E9459018C2F0E945201EE
:1004000080931F01CF910C94090181EE0E94F901A4
:1004100080911F0108950E94590180E50E945201B8
:1004200080931F0183E70E9452010C9409011F92DF
:100430000F920FB60F9211242F933F938F939F9398
:10044000AF93BF9380910F0190911001A091110182
:10045000B09112013091090123E0230F2D3758F597
:100460000196A11DB11D2093090180930F01909366
:100470001001A0931101B093120180910A01909193
:100480000B01A0910C01B0910D010196A11DB11DB0
:1004900080930A0190930B01A0930C01B0930D017E
:1004A000BF91AF919F918F913F912F910F900FBE70
:1004B0000F901F90189526E8230F0296A11DB11DDD
:1004C000D2CF789484B5826084BD84B5816084BDC8
:1004D00085B5826085BD85B5816085BD80916E00E2
:1004E000816080936E001092810080918100826013
:1004F0008093810080918100816080938100809150
:1005000080008160809380008091B100846080933E
:10051000B1008091B00081608093B00080917A003A
:10052000846080937A0080917A00826080937A0060
:1005300080917A00816080937A0080917A0080684F
:1005400080937A001092C10081E080930001CFB7C0
:10055000F89480910E01811124C0E0EAF0E08491CA
:10056000E4EBF0E09491E82FF0E0EE0FFF1FE4578A
:10057000FF4FA591B491EC91E92321F461E08AE069
:100580000E94A9008AE00E948A008CB580618CBD1F
:100590008CB580648CBD8DE00E948A008BE00E9447
:1005A0008A0080910E018F5F80930E01CFBF8091F2
:1005B00019018F3F09F49CC090911A019F3F09F4E3
:1005C00097C0891731F00E948A0080911A010E9419
:1005D0008A0080E00E940C0181E00E94F5000E94E8
:1005E0002D016B017C0135E0832E912CA12CB12CC7
:1005F0000E942D016C197D098E099F09683E734088
:1006000081059105A8F321E0821A9108A108B1089B
:1006100088EEC80E83E0D81EE11CF11C8114910401
:10062000A104B10429F76FE584E00E94810190E004
:1006300080E00E94A6018DE10E949401C82F0E94D3
:100640000B028DE10E94940191E0C81390E0909319
:100650002C01882341F0C81302C00E940B0260E005
:100660008DE10E94810110922E0160E08CE10E94D8
:100670008101109230016FE381E00E94810163E00B
:1006800082E00E94810180E280932001C1E16091BB
:1006900020018C2F0E948101CF5FC731C1F763E039
:1006A00083E00E94810185E080932F016CE40E9429
:1006B000810160E787E00E94810182EE0E94F901DA
:1006C0000E9405026CE080E00E94810180E00E94AF
:1006D000940180932B0181FD0BC0682F62606093B1
:1006E0002B0180E00E9481018BE19EE40197F1F7EC
:1006F00086E00E949401887F682F656086E00E94F2
:10070000810182E090E00E94A60140912F0161E00A
:1007100071E08AE00E94D90140912F0161E071E00F
:1007200080E10E94D90140912F0150E061E071E029
:1007300086E291E00E94740480E00E940C018091A6
:100740003201909133018230910538F0880F991F62
:10075000880F991F05970197F1F780912E0181115C
:100760000E94050260912B016E7F60932B0180E057
:100770000E94810140912F0166E271E08AE00E94AF
:10078000D90182E00E949401ECE7F0E0E49161E09D
:1007900070E001C0660FEA95EAF7682B82E00E94DC
:1007A000810100E010E08FE00E9415019093140198
:1007B000809313018EE00E9415019093160180939F
:1007C000150180913001C0E0D4E0811107C0C091D3
:1007D0002001DC2FC53008F0D4E0CD1B0E94590168
:1007E00080EA0E94520180931F0183E1E82E81E09C
:1007F000F82ED15030F0F70181917F010E94520113
:10080000F8CFC15020F080E00E945201FACF0E9440
:10081000090181E00E940C018FB7F894C0900F018C
:10082000D0901001E0901101F09012018FBF8FEF76
:100830000E94F90180911F018073F1F42FB7F894A1
:1008400080910F0190911001A0911101B0911201BE
:100850002FBF8C199D09AE09BF0980369105A105EE
:10086000B10528F381E0809331010115110509F4E8
:100870009ACF0E94000097CF80E00E940C0160E7B1
:1008800087E00E94810180911F0184FFEECF0E94CA
:100890000502EBCFE7E1F1E089E082838AE0838320
:1008A00080E896E9A8E9B0E084839583A683B783BE
:1008B00080E28187158A168A85E0808F81E0818FAA
:1008C000128E85E090E0A0E0B0E0878F90A3A1A316
:1008D000B2A388E091E0918380830895EE0FFF1F1B
:1008E0000590F491E02D0994FB01DC0102C0019018
:0E08F0000D9241505040D8F70895F894FFCF74
:0808FE000163616E616C3100C1
:00000001FF
